:1000000000200010D9000000C1000000C500000061
:1000100000000000000000000000000000000000E0
:10002000000000000000000000000000C900000007
:100030000000000000000000CD000000D100000022
:10004000D5000000D5000000D5000000D50000005C
:10005000D5000000D5000000D5000000D50000004C
:10006000D5000000D50000000000000000000000E6
:100070000000000000000000D5000000051B00008B
:10008000E9190000C932000041300000A930000029
:10009000D500000011310000D5000000D50000009F
:1000A000D500000011150000D5000000D5000000AB
:1000B0000000000000000000D5000000000000006B
:1000C000FEE7C046FEE7C046FEE7C046FEE7C04684
:1000D000FEE7C046FEE7C0461148124B10B59842F5
:1000E0000BD2013B1A1A0023920801320E4C9200E7
:1000F000E158C15004339342FAD10C4B0C4A93425D
:1001000009D20321013AD21A8A43191D521800213B
:1001100002C39342FCD100F057F801F06DFAFEE7FC
:100120007C040010940400105C69000000010010C1
:100130007C040010204B00205B6A10B5DB051B0F10
:10014000013B0E2B02D81D4A9B00985803211A4AE6
:10015000546A136F0B40022B25D0032B0ED0012BBA
:1001600004D1136C19400239012923D91448124BC8
:10017000144C996F03F0BCF8206010BD116C0B405B
:10018000012B03D0023B0020012BF0D9C023916842
:100190005B001942EAD19268623BFF3B084813407A
:1001A00001335843E3E73E2164002140023103F06C
:1001B0009FF8DCE70020DAE70080044004620000DA
:1001C000001BB7007C0400108E21202010B5314B9D
:1001D00089005A5882B082435A5000221A62019212
:1001E000019BC72B06D8C046019B01330193019B9D
:1001F000C72BF8D901230021264A136453645164A4
:1002000053640131536C1942FCD023238E2180208A
:100210009360890053588343535001211D4AD3688A
:100220001942FCD0032313670023516753675167BA
:100230000121184B5A6F1142FCD08E22996792000F
:100240009858154C204098509858144C204098507D
:1002500000229964D964DA64D96401210D4AD36C0F
:100260001942FCD02323012113610A4A5369194220
:10027000FCD00020C023D0500433D050D1500433E0
:10028000D1508021802350585B020343535002B069
:1002900010BDC04600800440FFFBFFFFFFFEFFFFD4
:1002A000F8B5234BCE469C4647466246214B80B567
:1002B0001380E123937000235371D380634602338C
:1002C0009946012541230726D0700005000F1071C3
:1002D0004A460824107802005900C9B20F005A405B
:1002E000D20959102B4053402940B74351405B007D
:1002F0003A43400089001343013CC0B20B43002C39
:10030000E9D1012291440C4A4A45E1D16246A02438
:1003100080251372094B2D04E405E5500921604640
:1003200002F060FE064BE550C0BCB946B046F8BDD1
:100330001C01001001C7FFFF2401001084220000EF
:1003400004220000F0B5DE4657464E464546E0B56D
:10035000002089B0FFF7A4FF914C2368002B04D044
:10036000904D2B88002B00D00AE18F4E8F4BA0259B
:10037000338080231B0499464A468D4BED05EA5095
:100380000221300002F02EFE4A468A4F0520EA5133
:1003900001F076FB4A46884B02213380844B3000C3
:1003A000EA5002F01FFE20220021300002F05AFD28
:1003B0001321300002F030FE4B46EB5120239946CA
:1003C000F0237E4D1B012F00AA46A9449846250024
:1003D0004346747820021840337824091843784B38
:1003E000C01803F025FD05F025FD0022754B04F033
:1003F000F3FD0022744B04F0B9F905F061FD38609B
:10040000B07803360001204303F012FD8821C905AE
:1004100003F0A4FA05F00EFD00226A4B04F0DCFDA7
:100420000022694B04F0A2F905F04AFD7860083714
:100430004F45CDD1002265482C00026083466448B8
:10044000644B8146026064481A600260079063480A
:10045000069380464B4602806148624902800590BF
:1004600061480A60028022680027002600920493F7
:1004700000224346554600249246B146B8460390B2
:100480000191029328E0301C05F0D4FC574A584BE8
:1004900006000F0002F0D8FF002824D1009B012B9A
:1004A0003FD030003900534A534B02F0E1FF00289F
:1004B0003FD00122A24003990B881343049A0B807A
:1004C0001368013313605B465A461B68013313609F
:1004D00001340435082C12D02E684849301C03F032
:1004E00001F80028CFD001234A46A3401A43012334
:1004F000013491469A4698440435082CECD1029B6D
:100500004746984653464E460199002B02D0434633
:100510000F601E8009B0F0BCBB46B246A946A0469B
:10052000F0BD30003900364A364B02F0A1FF0028FA
:10053000BFD130003900344A344B02F099FF002813
:10054000C1D130003900294A314B02F073FF002835
:10055000BED00122A240059930000B881343069AB1
:100560000B801368390001331360224A294B02F0D3
:1005700061FF0028ACD0079A136801331360A7E726
:10058000A02180230B4AC90588589B0403438B5044
:10059000012001F075FA2888FFF782FEE5E6C046E3
:1005A000BC020010640100101C01001060E7FFFF96
:1005B000842200000422000004DCFFFF7C01001004
:1005C00000FEFFFF0000F83F00408F407001001068
:1005D0006C01001078010010740100105E01001021
:1005E0006001001068010010620100109A99999949
:1005F0009999D93F6666666666660E40000090402F
:10060000CDCCCCCCCCCC0C403333333333330B4058
:100610009999034066660240F0B557464E464546F6
:10062000DE460023E0B5794D794F7A4E83B02B60DA
:100630003B603368002B05D1774B9B461B88002B12
:1006400000D179E0754B764C9946764B9846764BBF
:100650000093A0218023754AC90588589B04034351
:100660008B5002264B461E6043461E60802381212C
:10067000237008336370A17001F054FB009B58781D
:100680001B780002184300B203F0D2FB28604846F2
:1006900080220660892381214046066022706370B3
:1006A000A17001F03FFB009B28685C781E7805F084
:1006B000C1FB5F4A5F4B04F08FFC05F001FCF6B212
:1006C00028602002304300B203F0B2FB5A4902F026
:1006D000FBFF386005F0AEFB554A584B04000D0097
:1006E00002F0BCFE002807D020002900504A544BDD
:1006F00002F0A0FE00281CD101F0E2F9514C0500E7
:10070000206800280DD0A8420BD2281A03F0D8FB8D
:10071000396802F0D9FF4C4E011C306803F01EF915
:100720003060256003B0F0BCBB46B246A946A04687
:10073000F0BD00233B60DFE7A021444BC9050193D6
:100740001B68002B4CDD8022384892040C58013B7A
:1007500022430A50019A13600A2001F091F92F4BAD
:1007600081211A009946022313602E4A2C4C1360F3
:1007700090468022863322706370A17001F0D2FA15
:10078000294A507813780002184300B2009203F00F
:100790004FFB0223286048460360404681210360E6
:1007A0007E33237009336370A17001F0BBFA009AA5
:1007B000537812781B0213431BB218009A4603F0B9
:1007C00037FB019938600B68002B10DD3368002B74
:1007D00000D03EE75B461B88002B00D141E738E79D
:1007E00080231B4A9B04885803438B50B4E7194A63
:1007F000136801331360642BE8DD5346002BE5DBFF
:10080000FA235B000B6000231360DFE7A4020010F3
:10081000A0020010BC02001064010010D4020010FD
:100820001C030010D8020010DC020010042200009B
:100830007B14AE47E17A543F0000A039E17A94BFBF
:10084000E17A943F9C02001088040010800400109C
:10085000842200001401001070B5A02380218A209A
:10086000802680258024104ADB0576032D03490568
:100870008001240699501E509D509C5080221A5091
:1008800080209446094A40029850802000029850E7
:10089000882080011E509D509C5064461C509950E9
:1008A0000122034B1A7070BD842200000422000054
:1008B0001A010010F0B5DE464E4645465746E12285
:1008C000E0B5C64BA3B092001A6002F0D9FCC44E4A
:1008D00005003368002B60D1C24C2378032B15D858
:1008E0002A00303AD2B2092A33D8BF490133086806
:1008F0002370820012185200303A52190A6023B055
:10090000F0BCBB46B246A946A046F0BD042B52D06F
:10091000052B5BD0062BF2D10A2DF0D0202DEED086
:100920000D2D50D13368002B00D08DE0AF4B1B78DC
:10093000702B76D0782B72D0612B5AD0762B00D1C9
:100940008FE0433BDBB2342B43D8A94A9B00D358FA
:100950009F4620232A009A431300413BDBB2192B08
:1009600016D90A2DCBD0202DC9D00D2D2BD1A14DBC
:10097000A149280002F040FA280002F093FA010091
:10098000280002F065FC0023974A23701360B6E745
:10099000964B1D7006232370B1E7964C02009749D1
:1009A000200002F029FA200002F07CFA0100200069
:1009B00002F04EFC90E72A001C339A431300413B9F
:1009C000DBB2192BE4D90523237098E70D2D96D1BE
:1009D000CDE7854D8A49874802F00EFA854802F036
:1009E00061FA0100834802F033FC002323702B607E
:1009F00085E7844B186805F01DFA0022824B04F04D
:100A0000EBFA05F0ABF9814902007A4802F0F4F9FB
:100A1000784802F047FA0100764802F019FC724D5E
:100A2000E3E7714D2B68002B30D0022B56D0032BFF
:100A300061D0042B68D0764B76491B78002BCAD145
:100A4000FFF70AFF7449C6E76A4D7449280002F0AF
:100A5000D3F9280002F026FA0100280002F0F8FB82
:100A600064E7614D2B68072BB4D86D4A9B009858FA
:100A700005F0E0F90022644B04F0AEFA05F06EF9DF
:100A8000624902005B4802F0B7F9A7E7A022802084
:100A90006449D205400550508020400250508020CB
:100AA0000002505080268A2076038001165080264E
:100AB0003603565080263606565080211150544A2F
:100AC000594913704B4E300002F096F9300002F095
:100AD000E9F90100300002F0BBFB86E7A026802781
:100AE000504BF6057F05F750012000F0C9FF4F4B32
:100AF0004F49F7506FE7A0228A238021D20549038E
:100B00009B01D1504B4966E7A02288238021D20562
:100B100049039B01D15048495DE7484B3B491A685E
:100B2000344802F069F973E7454B186805F082F91B
:100B3000444A454B03F01AFE05F010F9434B80463A
:100B4000186805F077F93F4A3F4B03F00FFE05F0B8
:100B500005F93F4B0700186805F06CF9394A3A4B24
:100B600003F004FE05F0FAF8434600903A003949D4
:100B7000204802F041F94BE7A02580262B4BED05DC
:100B80007604EE50642000F07BFF9427254B324919
:100B9000EE500323314E1748F2591343F35102F03C
:100BA0002BF9144802F07EF90100124802F050FBC4
:100BB0000722F3590C4D9343F35116E70A4D2B6866
:100BC000002B00D156E10122254B24491A70032342
:100BD0009332885803438B5007E7C04690040010B7
:100BE00008010010100100100C010010110100108C
:100BF000A46500009C0100104862000040620000F3
:100C000024650000A002001000408F40D062000068
:100C10001A010010A8620000C062000058620000C3
:100C20007C010010842200005C62000004220000AD
:100C30006C6200007C62000094620000B802001048
:100C400084040010CDCCCCCCCCCC0C40880400105B
:100C50008C04001018650000B864000000400440D7
:100C600019010010A44B186805F0E4F8A34AA44B3E
:100C700003F07CFD05F072F8A24B0700186805F040
:100C8000D9F89E4A9E4B03F071FD05F067F89E4B24
:100C90000500186805F0CEF8984A994B03F066FDF8
:100CA00005F05CF8994B9A4A1B6812689C466146AD
:100CB000984B1B68062900D91CE18E00964989597A
:100CC0008F46964D2B68012B00D1DCE0022B00D122
:100CD000DFE09349032B00D0F4E6924E92493000B6
:100CE00002F08AF8F2E68D4D2B685A1E934133606C
:100CF0007BE60522002120A802F0B4F88B4B1B787C
:100D0000002B00D1B1E08A4B8A491A6820A802F072
:100D100073F8894B186805F08DF80022874B04F0B2
:100D20005BF905F01BF8202214901592002803DAD5
:100D3000434214932D231593814B186805F07AF8DC
:100D400000227E4B04F048F905F008F87D4D7E49FD
:100D50001C90286802F0B8FC03F04AF87B4B7A49F3
:100D60001E880123334020331D9068681F0002F065
:100D7000ABFC03F03DF8B307DB0F203372491E9044
:100D8000A868169302F0A0FC03F032F87307D90F9D
:100D900020311F901791E8686B4902F095FC03F031
:100DA00027F83307DB0F20338346674928691893F8
:100DB00002F08AFC03F01CF8F306DA0F20328246B8
:100DC00061496869199202F07FFC03F011F8B306DB
:100DD000D90F203181461A91A8695B4902F074FC51
:100DE00003F006F880467306D90F2031E8691B919D
:100DF000554902F069FC02F0FBFF5549554A33069C
:100E000012781B9E129220AA11921C9A0B96109295
:100E10004646149A0A960F92159A1A9E0E92199A9D
:100E20000996079252464E4606925A46DB0F2033E9
:100E30000D93189B08960593179E169B0396019396
:100E40001F9E1E9B0C900492029600933B001D9ADD
:100E5000344801F0D1FFDBE5394BCBE52D4B3E4962
:100E60001A68304801F0C8FFD2E53C4920A801F0DB
:100E7000C3FF4EE73A4A07201370942239498B5832
:100E800083438B50B1E5274E3749300001F0B4FF62
:100E90001CE6244E3549300001F0AEFF16E6344919
:100EA000204E029301903B003000009501F0A4FF1A
:100EB000300001F0F7FF0100300002F0C9F9174DD2
:100EC00093E52C4909888C462B49164E03930290D2
:100ED0001300300062460195009701F08DFFE7E7AF
:100EE0002649DDE72649DBE72649D9E72649D7E742
:100EF0002649D5E72649E8E784040010CDCCCCCCC0
:100F0000CCCC0C40880400108C040010BC020010F3
:100F1000B8020010B4020010786600000C01001046
:100F2000A06400009C0100109464000066010010A1
:100F3000A8020010C0640000A002001000408F4012
:100F4000A40200107C010010000020416401001088
:100F5000D06400001A010010D0620000C8640000D4
:100F60001901001000400440806400008C640000FF
:100F7000E06300005C010010A863000074630000DF
:100F8000406300000C630000D8620000146400009D
:100F900048640000A823F0B51021C646434A5B0010
:100FA000A02400B5D150FFF7C5F800F09DFD00F07A
:100FB00031FD8021802280273D4DE40563590902DF
:100FC0000B436351635952021343635163593F0307
:100FD0003B436351802380209B01E25840038446B9
:100FE000024380208026E25062590006024362518B
:100FF000E258B0463243E2508023802662595B04B7
:101000001343802263516359760533436351635917
:10101000920413436351274BE65080267602E65034
:10102000E1508A21664689016650E750E050434608
:101030000026E1206350204F204B00021E70E35930
:101040001A43E25102F09CF8012000F021FE01F069
:101050008BFF01F079FF01F03FFF01F02DFF8022AF
:101060006359120413436351E25194220720144B35
:101070009958814399500121985808439850D96450
:10108000104B903A1970104B1A6042460F4B1E607D
:101090000F4B1A7054325A708E3A9A70433ADA7083
:1010A00000F040FE80BCB846F0BDC0460080044061
:1010B0000420000084220000042200001A01001015
:1010C0000040044019010010D4020010D8020010A2
:1010D0001C030010F0B54F464646D646C0B584B056
:1010E00000236A46C64FD3713B6804219C461A0010
:1010F00000250424C34802AEC3681C421DD0836887
:10110000DBB2FF2B13D0B52B13D0B3540132350013
:10111000032A00DD6AE10139C9B201250029EBD1BA
:101120003A6004B0E0BCBA46B146A846F0BD002221
:10113000F1E76D4601222B72EDE7002D00D15DE154
:101140003A60032AEDDD02ADAF4B1B78002B02D1D4
:101150002978B52972D0AD4CAD49200001F04CFE84
:10116000200001F09FFE0100200002F071F83B68B2
:10117000002B16DDA74BA846002699464346494654
:101180001A78200001F038FE200001F08BFE0100EB
:10119000200002F05DF8012398443B680136B34219
:1011A000ECDC9D49200001F027FE200001F07AFED2
:1011B0000100200002F04CF83B68A8460026002BF6
:1011C0001EDD964B9946964B9A4610E051462000FC
:1011D00001F012FE200001F065FE0100200002F087
:1011E00037F8012398443B680136B34208DD434693
:1011F0001A781F2AEAD84946200001F0FDFDE9E7E8
:101200008849200001F0F8FD200001F04BFE0100AC
:10121000200002F01DF800222B783A60B52B0ED08A
:101220008149200001F0E8FD200001F03BFE0100B3
:10123000200002F00DF801F04FFE72E73B606A46B5
:10124000AB786C780021D3712800082201F00AFEE7
:101250002300633BDBB2A246132B06D8734A9B00E4
:10126000D3589F466B46DB792B7066492A7804ABCE
:1012700001358A60AB42F9D16D4B00279946634B2B
:10128000604D98461424042606E00120013C00F03D
:10129000F7FB002C00D187E0EB681E42F5D0013748
:1012A000AB68082FEED15346702B00D189E07A2B22
:1012B00000D036E76B460121D81D01F0C9FF30E7A9
:1012C0005C4B1E685C4B186804F0B4FD00225B4B5D
:1012D00003F082FE02F010F9594B84B2186804F052
:1012E000A9FD564B002203F077FE02F005F9C3B2C8
:1012F0001B041C43534B000A1B6800060443029462
:101300002E716B71B1E76B46DE792C00013E7342A2
:101310005E414D4B3601F61801CE04F08BFD474B74
:10132000002203F059FE02F0E7F82070000A607016
:1013300004AB0234A342EFD197E76B46DB79002B75
:1013400056D0012B00D1D5E0082228003F4901F0FA
:1013500061FD8AE73E4B186804F06CFD3D4A3E4B48
:1013600003F004FA02F0C8F83C4B0400186804F0DB
:1013700061FD384A384B03F0F9F902F0BDF8384BFB
:101380000600186804F056FD324A334B03F0EEF9BC
:1013900002F0B2F8F2B21204A3B2360A36061343D0
:1013A00033430293A88060E749463A00404601F083
:1013B00023FD404601F076FD0100404601F048FF64
:1013C0006DE76B46DB79012B52D0022B6DD0032BDE
:1013D00000D0A6E6A0248025224BE4056D05E5504B
:1013E000012000F04DFB204BE5509AE63A60ABE659
:1013F000082228001D4901F00DFD36E76246A0E6EF
:101400000401001000000440180100109C010010AD
:101410003465000048650000446500005465000024
:1014200040620000506500005865000094660000AE
:1014300088650000A8020010A402001000408F4040
:10144000A0020010BC0200107C0100107C650000AE
:1014500088040010CDCCCCCCCCCC0C408404001043
:101460008C04001084220000042200006865000043
:10147000A0238021224ADB05490599508021490299
:10148000995080210902995080208A2140038901C6
:1014900058508020000398508020000698508022E9
:1014A0005A500022174B1A703BE6A02380218A2055
:1014B0008027802680258024114ADB05800149058C
:1014C0007F0336032D0699501F509E509D501C508F
:1014D00080200D4A400298508020000298508820B9
:1014E00080011F509E509D501C5099500122054B69
:1014F0001A7016E608222800044901F08BFCB4E6B5
:10150000842200001A01001004220000746500000B
:1015100080228021034B92045A500131FF315A50EE
:101520007047C04600E100E0A822F0B50021C646A1
:101530002B4B80468520520000B5995080228000B8
:101540001C588025520122431A508022254C953880
:10155000FF38AD0425501F5812023A431A503F225B
:1015600040265A62FA32FF329F58B7439F508C2769
:10157000BF00BC46DF59B74366469F5101269F58BE
:10158000043A9F50184AB44616614646174F7743AF
:10159000664657601160176837431760516172B62D
:1015A000AA279760553F976062B680262C37FF3791
:1015B000E5510F4F360125603E6066463E600D4E98
:1015C0000427B04636693E4347463E6130BF25504A
:1015D000116010225131FF315A5080BCB846F0BD25
:1015E0000080044000E100E0004000400A2E0000BE
:1015F0000080034000ED00E0F0B5DE4657464E4661
:101600004546E0B595B0FFF7C5FC0023D64AD74E56
:1016100013800792D64A336013609346D54A13600D
:10162000D54B0B929846E12342469B00136000F095
:1016300047FA3368D14F0193D14B38609946D14B6B
:101640000293D14B0A93D14B0493D14B0593D14BC9
:101650000093D14B0C93D14B0693D14B0D93D14BAF
:101660001393D14B1293D14B1193D14B1093D14B78
:101670000E93D14B0F93D14B9A464B46D146BA4667
:101680000393FEF7C9FFFEF75DFE039B1F68029BF5
:10169000381C1D68291C01F011FF0023002823D1EC
:1016A0000A9B381C1C68211C01F01CFF64230028C5
:1016B0001AD1291C381C02F051F904F0BBFB00229E
:1016C000BF4B03F089FC08900991291C201C02F0F3
:1016D00045F904F0AFFB0B0002000898099903F0EC
:1016E00045F804F03BFB0300049AB6491360059BE0
:1016F0001D68281C01F0D8FE431E9841B149040022
:10170000281C01F0D1FE002808D0009B1B78002B7C
:1017100004D10C9B1B78002B00D1A5E0009B1C7012
:101720003368062B17D8069A9B00D3589F46002291
:10173000079B1A805B461B68052B0CDD109B1B6802
:10174000002B49DD0E9B1B68002B04DD5B4600224D
:101750001A600123019301F0AFFD002801D0FFF7CB
:10176000A9F8FFF7B7FC3368062B7AD14B46186807
:1017700001304B46186053461B6883421ED0C31A83
:10178000092B12D85A46594612680B9C9A180A60BF
:1017900021685B182360002A02DA5A460021116092
:1017A000002B02DA00220B9B1A6053461860434656
:1017B0001B68002B02DD4246013B1360019B336036
:1017C0005FE70022079B1A805B461B68052BC2DD82
:1017D0000D9B1B68002BBED15B4600221A600023C4
:1017E0000193B8E70022079B1A80F5E70021079BC9
:1017F00019800D9B1B68002B64DD5A461268052A70
:10180000A9DD139A13800023129A13705B461960A6
:10181000042301939FE70120FFF786FEDCE7002207
:10182000079B1A805B461B68032B94DDD4E70F9B54
:10183000079A1B8813805B461B68032B8BDD0E9A6F
:101840001268002A04D0119A1268002A00DCC7E04E
:101850000022079B1A805B4600221A600223019334
:1018600079E700F02DF984E7A0238021564ADB05B3
:101870004905995080208A214003890158508020D1
:1018800000039850844680200006985080225A50C9
:1018900080214E4A490299508021090299508020A6
:1018A00088214003890158506046985080200006E6
:1018B00098508020585080214905995001230C9A56
:1018C00013702BE7002B1AD10021281C01F00AFE0F
:1018D000002814D0119B1B68002B10DD5B461B6891
:1018E000052B00DC37E7129B1B78002B01D0029BF5
:1018F0001F6000235A461360033301932BE7281C13
:1019000004F098FA324A334B04000D0001F092FDC6
:1019100000281DD0200029002F4A304B01F09EFDE9
:10192000002815D0109B1B68072B11DD5B461B6838
:10193000052B00DC0FE70A9B039A1B681360012349
:10194000129A137000235A4613600533019302E77D
:101950000E9B1B68002B00DCFDE65B461B68022B20
:1019600000DCF8E6F2E6C04664010010BC0200109C
:10197000B8020010B402001090040010AC02001075
:1019800088040010840400108C040010A8020010C9
:10199000A0020010000100101A010010E46600000F
:1019A000680100105C010010660100107801001051
:1019B000700100106C01001062010010B0020010F4
:1019C00000005940CDCCCCBD842200000422000090
:1019D0007B14AE47E17A843F9A9999999999B9BF56
:1019E000052B00DD37E7B6E60122074B1A60074BEF
:1019F0001A6801321A601B68002B03D1044A13686D
:101A0000013313607047C04600C00040C40200109C
:101A1000C0020010F8B500238025134A1349136053
:101A2000134A032713604A59FF262A434A510222C8
:101A3000FA21104C89006260E760266063670E4BF4
:101A4000186801F055FCC4210C4A8008A061890087
:101A500067615358B3432B43535080235B02136099
:101A600001236360F8BDC046C4020010008004403A
:101A7000C002001000C000407C04001000E100E043
:101A80000E4A10B5041E10680DD0E34383420BD2FA
:101A90001368984207D8411C091913689942FCD869
:101AA00013688342F9D210BD13681B1AA342FAD2FD
:101AB00013681B1AA342F7D3F5E7C046C40200100F
:101AC000FA21064B10B51868054B89001C6801F017
:101AD0000FFC044B6343181810BDC046C40200102D
:101AE000C00200103789410080234020044AD158A9
:101AF0000143D150C421D05849040143D15070470B
:101B0000008004408023DB055A68FF231340083B14
:101B100010B5502B0CD8564A9B00D3589F46554BB6
:101B20001B68012B00D195E080230422DB051A609D
:101B300080230822DB059A6110BD80231022DB057B
:101B40001A60083A9A6104224B4BFF321A60F3E79D
:101B500000224A4B1A601A68511C1960484B9B5C62
:101B60008022DBB2D2059360282393610122424B8D
:101B70001A60E1E70022434B1A60404A1368591C7F
:101B800011603F4AD35C8022DBB2D20593602823E8
:101B90009361D1E7394A1368591C1160384AD35C04
:101BA0008022DBB2D205936008239361C4E78023CF
:101BB0003448DB059A6801684C1C04603248425482
:101BC00002212D4AFF31116010221A60083A9A61F1
:101BD000B2E72A4B2D4A19681268914230D3254B3F
:101BE0001B68002B3BD080232022DB051A609FE777
:101BF00080231022DB051A60083A9A611E4BFA32E4
:101C00001A6099E782221C4B52001A608023FC3A2A
:101C1000DB059A6190E780201A4AC0058368116845
:101C20004C1C1460184C6354124B1B681268013B27
:101C3000934202D9042303607AE70423836177E7A0
:101C40001A68511C19600E4B9B5C8022DBB2D205D6
:101C500093606DE780230422DB059A6168E7022226
:101C6000054BFF321A608023F13ADB051A605FE70B
:101C700000670000D802001060030010CC020010C2
:101C80001C030010D0020010DC020010D40200106F
:101C9000022170B51C4D1D4B286020205A688024FD
:101CA0000A435A607E315A58E40502435A50184B91
:101CB00019381A697F3982431A611A690A431A610D
:101CC0005A6982435A615A690A435A616C23A36173
:101CD000104B1149186801F00BFB606120612B6803
:101CE000022B04D100229E33E3600C4B1A60802249
:101CF0000B4B12021A602B68012B03D18023402268
:101D0000DB051A60012070BDC8020010008004408D
:101D1000004004407C04001000350C005C030010FF
:101D200000E100E000231949194A0B601360194AC9
:101D3000136080232022DB051A600B68012B0BD077
:101D40000023154801E083420BD00A680133012AC1
:101D5000F9D1114A934204D00B68FF2BFCD90868D3
:101D60007047802108221023C9050B608A610A6828
:101D7000134208D01020084B02E0013B002B02D098
:101D80000A681042F9D10620FF30E9E7600300102D
:101D9000D0020010CC020010FFFF0000F8B50400D4
:101DA0000D001E00571E092B12D80300C119002F69
:101DB0001BDD1D7001338B42FBD11500013CA418C3
:101DC00030000A2101F01AFB303128002170F8BDE3
:101DD0000A21180001F08CFA290003003A002000C3
:101DE000FFF7DCFF2418451CEAE70125E8E7C046B9
:101DF000F0B51E00C646DB170F00F118594005006C
:101E00008846080000B5541E092918DD0A2101F092
:101E10006FFA4342002E00DB030022002800390045
:101E2000FFF7E6FF04002D18013440460A2101F0B7
:101E3000E5FA30312000297080BCB846F0BD002E94
:101E400010DB002C13DD2B002A191F700133D11A6F
:101E50000029FADC2D19002EE6DA02342D232B702E
:101E60000135E2E7941E002CEDDC0224F6E70124A4
:101E7000DBE7C04670B51E0082B0531E9C46069B31
:101E800004001B091DD163466546C0182300002DC0
:101E90001FDD197001338342FBD11000013CA418EF
:101EA0000F23069A1340092B04D830331A002270EE
:101EB00002B070BD1A005732002EF8D037331A0026
:101EC000F5E7009362463300FFF7D4FF2418013092
:101ED000E6E70120E4E7C046F0B55746DE464E4649
:101EE0004546E0B58BB004008A4614981599002247
:101EF000002301F09FFA002842D1002325009946D3
:101F00001498159903F02AFF060003F05FFF020002
:101F10000B001498159903F017FB0022D94B03F01E
:101F20005BF8D94B002202F00DF803F017FF0123F4
:101F300007009846092E4AD80A21300001F05EFABF
:101F4000303129704D462E234544635501356419BF
:101F5000092F22D80626023323706370A370E37022
:101F60002371053438000A2101F048FAA8193031EC
:101F700021700BB0F0BCBB46B246A946A046F0BDEE
:101F800080202D231599149A000623700B181492A3
:101F900015930123651C9946B2E70A21380001F028
:101FA000A7F98046632F28D8302323706370A3706D
:101FB000E370231D9946052306269A460A214046CA
:101FC00001F01CFA4B46303119705444CAE70A211B
:101FD000300001F08DF98346632E2DD80223AA46E6
:101FE0009846013B01930A21584601F007FA5346EF
:101FF00030311970019BED189EE70A2101F078F944
:10200000FA2381469B009F4231D2302323706370B4
:10201000A370E31C9B46052306269A46013B0193C9
:1020200048460A2101F0EAF95B4630311970019BFC
:102030009C46A444E146C1E70A2101F059F9FA237C
:1020400002909B009E4231D20323AA469846013B50
:102050000193013B03930A21029801F0CFF9534603
:1020600030311970039B9C46AC44E246BBE70A2121
:1020700001F03EF9854B83469F4233D830232370CD
:102080006370A31C0293052306269A46013B019325
:10209000013B039358460A2101F0B0F9029B30310D
:1020A0001970039B9C46A444E346B9E70A2101F05A
:1020B0001FF9764B04909E4235D80423AA469846D1
:1020C000013B0193013B0393013B05930A210498D3
:1020D00001F094F9534630311970059B9C46AC448D
:1020E000E246B8E70A2101F003F9694B02909F42EA
:1020F00037D830232370631C0493052306269A46A1
:10210000013B0193013B0393013B059302980A2194
:1021100001F074F9049B30311970059B9C46A4446E
:1021200063460293B6E70A2101F0E2F8584B0690A5
:102130009E4237D80523AA469846013B0193013BAE
:102140000393013B0593013B07930A21069801F095
:1021500055F9534630311970079B9C46AC44E24612
:10216000B4E70A21029801F0C3F84A4B04909F4259
:1021700038D8052306269A46013B0193013B039379
:10218000013B0593013B0694079304980A2101F053
:1021900035F9069B30311970079B9C46A444634671
:1021A0000493B3E70A2101F0A3F83A4B08909E424A
:1021B00037D80623AA469846013B0193013B039377
:1021C000013B0593013B0793013B09930A210898C2
:1021D00001F014F9534630311970099B9C46AC4408
:1021E000E246B2E70A2101F083F82B4BA246002613
:1021F00001909F4237D801980A2101F0FFF8534619
:1022000030311970731CE3180693B31C0793F31C49
:102210000593331D0393731D0193B31D9A4607362F
:10222000B3E70A2101F064F800221B4B90460390AB
:1022300001959E4232D803980A2101F0DFF8424608
:10224000019B30311970531CEB189A46931C09936B
:10225000D31C0793131D0593531D0393931D0193E3
:10226000D31D9846B2E70A2101F042F8012203008B
:10227000302120005242FFF791FD231806009A46B4
:10228000B9E7C04680842E410000E03F0F270000E0
:102290009F8601003F420F007F9698000A2101F0BF
:1022A00027F806220300514628005242FFF776FD28
:1022B0008446AC44634680460193BCE7F0B545468E
:1022C000DE4657464E46E0B58BB0149C159D8046C1
:1022D0008B46002200232000290001F0ABF80028E3
:1022E00000D098E0DD4B00222000290001F0C0F86A
:1022F0000023C1469A46002867D00027002220000C
:102300002900D64B02F032FA0022D44B04000D0013
:10231000013701F0ADF80028F0D12900200003F0CA
:102320001DFD060003F052FD02000B0020002900F5
:1023300003F00AF90022CA4B02F04EFE0022C94BFC
:1023400001F000FE03F00AFD01250400092E00D96A
:1023500093E030000A2101F051F84B4630311970FA
:10236000534642465E192E23935501369519092C82
:1023700068D830232B706B70AB70EB702B712A3BDD
:10238000994605350A21200001F038F843464E44AD
:102390009819731C2B22303143440236002F01DA86
:1023A0007F4202322970452101701A704346022291
:1023B000981915393B00FFF71BFD80190BB0F0BCD5
:1023C000BB46B246A946A046F0BD0022002320002D
:1023D000290001F029F8002700289ED126002F00AF
:1023E000390000223000A04B01F024F83D003400F9
:1023F0000027002891D0002220002900974B02F0EE
:10240000EBFD0022984B04000D00013F01F012F893
:102410000028F0D181E72D234246137080231B064C
:10242000EF18434601332900994600228F4B2000C4
:1024300001F00AF8012326003D009A46002800D04A
:102440005BE7CDE70A21200000F052FF8246632CB3
:1024500044D830232B706B70AB70EB702B1D009346
:1024600006239946013B9B460A21504600F0C6FFD1
:10247000009B303119705D4484E70A21300000F080
:1024800037FF0090632E0FD84B460193012302259E
:102490009B460A21009800F0B1FF019B3031197072
:1024A0004B465B44994654E70A2100F021FFFA238A
:1024B00001909B009E4254D24B4603930223032576
:1024C0009B46013B029301980A2100F097FF039B72
:1024D00030311970029B4B440193DAE70A2100F076
:1024E00007FFFA2300909B009C4218D230232B70E8
:1024F0006B70AB70EB1C029306239946013B9B4625
:10250000013B019300980A2100F078FF029B3031D3
:102510001970019B9C46AC4463460093A4E70A21D2
:10252000009800F0E5FE524B03909C4234D83023D3
:102530002B706B70AB1C049306239946013B9B46A2
:10254000013B0193013B02930A21039800F056FFDF
:10255000049B30311970029B9C46AC446346029345
:10256000D0E70A2100F0C4FE414B04909E4236D8C9
:102570004B460593032304259B46013B0293013BF5
:1025800003930A21049800F039FF059B303119703C
:10259000039B4B44039396E70A21039800F0A8FE9F
:1025A000344B07909C4237D830232B706B1C05931B
:1025B00006239946013B9B46013B0193013B029355
:1025C000013B04930A21079800F018FF059B303166
:1025D0001970049B9C46AC4463460493B4E70A21FB
:1025E00000F086FE234B08909E4247D84B46069348
:1025F000042305259B46013B0293013B0393013BCA
:1026000005930A21089800F0F9FE069B30311970F5
:10261000059B4B440593B4E70A21079800F068FE38
:10262000154B08909C4248D806239946013B9B468F
:10263000013B0193013B0293013B0493013B059550
:1026400006930A21089800F0D9FE059B30311970D5
:10265000069B9C46AC4463460593B3E700002440C8
:1026600080842E410000E03F0000F03F000024C0C5
:102670000F2700009F8601003F420F000A2100F053
:1026800037FE3E4B09909E4239D84B4606930523B0
:1026900006259B46013B0293013B0393013B0593B7
:1026A000013B07930A21099800F0A8FE069B3031F0
:1026B0001970079B4B440693A3E70A2100F018FE0C
:1026C00000222F4BAB46914601909C4237D801988F
:1026D0000A2100F093FE4A465B4630311970531CC4
:1026E000EB180593931C0693D31C0493131D0293BC
:1026F000531D0193931D9B46D31D9946A1E70A21C3
:1027000000F0F6FD4A461E4B0025039002929E42C1
:1027100024D803980A2100F071FE029B3031197011
:102720006B1C4B440693AB1C0793EB1C05932B1DB2
:1027300003936B1D0293AB1D9B460735B2E70A213D
:1027400000F0D6FD01220300302128005242FFF79D
:1027500025FB8446AC448146E346B8E70A2100F0F5
:10276000C7FD06220300594648465242FFF716FBB2
:10277000CC468444634605000293CAE73F420F00FB
:102780007F969800F0B54546DE4657464E46E0B582
:102790008BB0149C159D80468B46002200232000A0
:1027A000290000F047FE002800D095E0D34B00221E
:1027B0002000290000F05CFE0023C1469A46002854
:1027C00064D00027002220002900CC4B01F0CEFF6E
:1027D0000022CA4B04000D00033700F049FE002818
:1027E000F0D12900200003F0B9FA060003F0EEFA58
:1027F00002000B002000290002F0A6FE0022BF4BC1
:1028000002F0EAFB0022BE4B01F09CFB03F0A6FAAB
:1028100001250400092E00D98DE030000A2100F0C6
:10282000EDFD4B4630311970534642465E192E235A
:10283000935501369519092C65D830232B706B7090
:102840002D3B994602350A21200000F0D7FD434672
:102850004E449819731C2B22303143440236002F0A
:1028600001DA7F4202322970452101701A70434615
:102870000222981915393B00FFF7BAFA80190BB0FC
:10288000F0BCBB46B246A946A046F0BD00220023DC
:102890002000290000F0C8FD00270028A1D1260053
:1028A0002F00390000223000964B00F0C3FD3D00A0
:1028B00034000027002894D00022200029008F4BEC
:1028C00002F08AFB00228F4B04000D00033F00F052
:1028D000B1FD0028F0D184E72D23424613708023F8
:1028E0001B06EF1843460133290099460022864B08
:1028F000200000F0A9FD012326003D009A46002893
:1029000000D05EE7CDE70A21200000F0F1FC82460E
:10291000632C41D830232B706B1C00930323994602
:10292000013B9B460A21504600F068FD009B303178
:1029300019705D4487E70A21300000F0D9FC00904F
:10294000632E0FD84B460193012302259B460A2193
:10295000009800F053FD019B303119704B465B44E9
:1029600099465AE70A2100F0C3FCFA2301909B0024
:102970009E424AD24B460393022303259B46013BCA
:10298000029301980A2100F039FD039B3031197040
:10299000029B4B440193DAE70A2100F0A9FCFA23D9
:1029A00000909B009C4213D203239946013B9B4617
:1029B000013B0295019300980A2100F01FFD029B44
:1029C00030311970019B9C46AC4463460093A9E7E3
:1029D0000A2100F08DFC4D4B03909C4230D804231B
:1029E0009946013B9B46013B0193013B04950293B1
:1029F0000A21039800F002FD049B30311970029BFC
:102A00009C46AC4463460293D5E70A2100F070FC73
:102A10003E4B04909E4232D84B4605930323042537
:102A20009B46013B0293013B03930A21049800F06B
:102A3000E5FC059B30311970039B4B440393A0E7E1
:102A40000A2100F055FC324B07909C4234D80523F4
:102A50009946013B9B46013B0193013B0293013B9D
:102A6000059504930A21079800F0C8FC059B3031B6
:102A70001970049B9C46AC4463460493B8E70A2152
:102A800000F036FC224B08909E4245D84B460693F8
:102A9000042305259B46013B0293013B0393013B25
:102AA00005930A21089800F0A9FC069B30311970A3
:102AB000059B4B440593B8E70A2100F019FC154B20
:102AC00008909C4247D806239946013B9B46013B10
:102AD0000193013B0293013B0493013B059506934F
:102AE0000A21089800F08AFC059B30311970069B7A
:102AF0009C46AC4463460593B4E7C04600408F4013
:102B00000000E03F0000F03F00408FC00F270000B2
:102B10009F8601003F420F000A2100F0E9FB3E4B77
:102B200009909E4239D84B460693052306259B46BD
:102B3000013B0293013B0393013B0593013B079348
:102B40000A21099800F05AFC069B30311970079B46
:102B50004B440693A5E70A2100F0CAFB00222F4B45
:102B6000AB46914601909C4237D801980A2100F06B
:102B700045FC4A465B4630311970531CEB180593EF
:102B8000931C0693D31C0493131D0293531D0193AE
:102B9000931D9B46D31D9946A2E70A2100F0A8FB8E
:102BA0004A461E4B0025039002929E4224D8039869
:102BB0000A2100F023FC029B303119706B1C4B443E
:102BC0000693AB1C0793EB1C05932B1D03936B1D06
:102BD0000293AB1D9B460735B2E70A2100F088FB44
:102BE00004220300302128005242FFF7D7F8844620
:102BF000AC448146E346B8E70A2100F079FB06229F
:102C00000300594648465242FFF7C8F8CC46844470
:102C1000634605000293CAE73F420F007F96980083
:102C2000F0B54F464646D646C0B505000F0098465B
:102C300084B0002801D000230370117800260023FF
:102C4000002907D115E029700132013601351178CC
:102C500000290DD0BE4247D22529F4D15378252B27
:102C60000CD1297091780232013601350029F1D159
:102C700033009F4238D900232B702AE0302B2FD00D
:102C8000541C202294462D2B01D163780134190065
:102C90003039CAB2092A00D9A7E000229300D3181C
:102CA0005B005B180134DAB2237819003039C8B2FE
:102CB0000928F3D99119B94201D9BA1BD2B2453BBF
:102CC000DBB2332B03D84B499B00CB589F460126E0
:102CD0007642300004B0E0BCBA46B146A846F0BD2A
:102CE0009C46941C9378CEE70023013D2B70013E57
:102CF000EFE7414608C9280003916146FFF778F8DD
:102D0000039903008846621CED1836189FE7434676
:102D1000072107338B4303CB0090019161462800C4
:102D20009846FFF7CBFA0300EDE743460721073348
:102D30008B4303CB00900191614628009846FFF732
:102D4000CBF80300DFE7434602CB91469A460B7867
:102D5000002B4CD000202B54804601300B5C002B04
:102D6000F9D1121A91466B1C434449465A1800295E
:102D700005DD6146197001339A42FAD148440300D7
:102D8000D046C0E7414608C9280003916146FFF7D5
:102D900005F8039903008846B5E7414608C9009342
:102DA0000023039161462800FFF764F803990300AC
:102DB0008846A8E74346072107338B4303CB00909F
:102DC0000191614628009846FFF7DCFC03009AE772
:102DD000414608C9009303910123E3E7434604CB2E
:102DE000012098462A7001238DE7002267E72B0017
:102DF0000020BAE7446800000EB400B582B003AB0F
:102E000004CBFF210193FFF70BFF02B008BC03B016
:102E10001847C04630B50325140002002B000A43B2
:102E20001340154209D005000023002C04D0CA5CD1
:102E3000EA5401339C42FAD130BD0500032CF3D98A
:102E4000A5086A1E9446AD00CA58C2500433AB426E
:102E5000FAD16346051D9B00C918ED180323043100
:102E60001C40E1E730B5030014000200850711D1D2
:102E7000032C0FD90D040B062B430B430D022B43E0
:102E8000A508AD00AC46844408C26245FCD10323CA
:102E90001C4013001A19002C03D0197001339342FF
:102EA000FBD130BD0378002B04D000230133C25C7A
:102EB000002AFBD11800704794230121034AD15006
:102EC000034B044A1A6002221A61704700800440D2
:102ED000000004408705000001218020164A10B53B
:102EE00053688B43536053680B43536013581C0063
:102EF00080231B01234307241350104B186AA0435F
:102F00001862186A08431862586AA0435862586ADF
:102F100008435862022098629423D150084A094B12
:102F2000136008231061013BDBB29168002BFAD1DA
:102F30000633536010BDC04600800440004004408A
:102F400000000440870500009C230F21034AD15054
:102F5000034B044A1A6002221A6170470080044041
:102F600000800540C705000004211A4A30B55368A7
:102F700007240B43536080237C315058DB0203430A
:102F8000B8205350144B1958A143195019580D002B
:102F900002210D431D5004381D58A5431D501D58D6
:102FA0000D431D5004381D58A5431D501C580C439B
:102FB0001C509C23AF38D050084A094B136008239B
:102FC0001161013BDBB29168002BFAD102335360EF
:102FD00030BDC046008004400040044000800540F1
:102FE000C705000030B50400002911D04518122093
:102FF0001421084AD3680340022BFBD12378013403
:103000009360D3680B40042BFBD19368A542F1D1A8
:1030100030BDC0460080054030B500290DD04418B1
:10302000FF251421054A9560D3680B40042BFBD182
:103030009368037001308442F5D130BD00800540B3
:103040000122184B19680A4200D01A600222154B5F
:1030500019680A4200D01A600422124B19680A4209
:1030600000D01A6008220F4B19680A4200D01A607B
:1030700010220C4B19680A4200D01A602022094B1A
:1030800019680A4200D01A604022064B19680A42A9
:1030900000D01A608022034B19680A4200D01A60DF
:1030A0007047C046004001400122184B19680A428F
:1030B00000D01A600222154B19680A4200D01A602B
:1030C0000422124B19680A4200D01A6008220F4BE2
:1030D00019680A4200D01A6010220C4B19680A4283
:1030E00000D01A602022094B19680A4200D01A60E9
:1030F0004022064B19680A4200D01A608022034B16
:1031000019680A4200D01A607047C046008001402A
:103110000E23174A10B591680B40062B06D0042BDE
:103120000AD00C2B0DD0022B11D010BD9E2153695B
:10313000194213D1DB07F8D51068C0B200F0AEF821
:10314000F3E70C4AF43391680B439360EDE753695E
:103150009B0609D50022074BDA60E6E70548613196
:103160000B4083601368E0E70122024BDA60DCE782
:1031700000800040640300100048704764030010A2
:103180008022F8B580242C4B92031A518A222B4DB1
:103190000021520006002800FFF764FE0023EB60C8
:1031A00000F068F8C82207270220254B9958B94338
:1031B000995099580143995004329958B9439950FC
:1031C00099580143995080221E4B520119590A43C4
:1031D0001A51012198221C4C99508231E160995872
:1031E00099581A4B186800F083F83100000900F074
:1031F0007FF8030A6360FF230340236003236022F8
:10320000E360A760636963691340602BFBD1636966
:10321000DB0705D501210C4B1A685A691142FBD115
:10322000012380222B70044B92036E601A600522EA
:10323000054B5A60F8BDC04600E100E06403001091
:103240000040044000800440008000407C040010E6
:1032500010B500290AD044182021054A53691942A3
:10326000FCD00378013013608442F7D110BDC04612
:103270000080004010B5FFF77FFF0023437410BDAE
:1032800010B5FFF779FF0300C27C8218107DDA7C4D
:103290000132DA745A7C013A5A7410BD10B5040038
:1032A000FFF76AFF837CC3181C75837C013383742A
:1032B000437C0133437410BD10B5FFF75DFF407CC4
:1032C000431E9841C0B210BD0122074B10B51968CA
:1032D0000A4200D110BD1A60044A1368013313601A
:1032E00000E000BFF6E7C04600000140780400108F
:1032F000002243088B4274D303098B425FD3030A35
:103300008B4244D3030B8B4228D3030C8B420DD347
:10331000FF22090212BA030C8B4202D312120902D5
:1033200065D0030B8B4219D300E0090AC30B8B4213
:1033300001D3CB03C01A5241830B8B4201D38B03C1
:10334000C01A5241430B8B4201D34B03C01A524166
:10335000030B8B4201D30B03C01A5241C30A8B42A9
:1033600001D3CB02C01A5241830A8B4201D38B0294
:10337000C01A5241430A8B4201D34B02C01A524138
:10338000030A8B4201D30B02C01A5241CDD2C309AA
:103390008B4201D3CB01C01A524183098B4201D326
:1033A0008B01C01A524143098B4201D34B01C01A11
:1033B000524103098B4201D30B01C01A5241C30889
:1033C0008B4201D3CB00C01A524183088B4201D3F8
:1033D0008B00C01A524143088B4201D34B00C01AE4
:1033E0005241411A00D20146524110467047FFE750
:1033F00001B5002000F006F802BDC0460029F7D054
:1034000076E770477047C0468446100062468C4697
:103410001900634600E0C0461FB501F073FD0028A7
:1034200001D40021C8421FBD10B501F0B7FC4042D5
:10343000013010BD10B501F065FD002801DB002052
:1034400010BD012010BDC04610B501F05BFD002885
:1034500001DD002010BD012010BDC04610B501F0F7
:10346000E7FC002801DC002010BD012010BDC04693
:1034700010B501F0DDFC002801DA002010BD0120AC
:1034800010BDC046844608006146FFE71FB500F046
:10349000CBF8002801D40021C8421FBD10B500F0B0
:1034A00047F84042013010BD10B500F0BDF80028CB
:1034B00001DB002010BD012010BDC04610B500F09A
:1034C000B3F8002801DD002010BD012010BDC0466A
:1034D00010B500F059F8002801DC002010BD0120D3
:1034E00010BDC04610B500F04FF8002801DA0020EA
:1034F00010BD012010BDC04670B500220B4B04006A
:103500000D00FFF7B5FF002804D12000290002F0CC
:1035100025FC70BD054B00222000290002F014F8A4
:1035200002F01CFC80231B06C018F2E70000E041FB
:1035300030B543024200C50F48025B0A440A480006
:103540009C46120E000EC90FFF2A11D0FF280CD086
:10355000012382420AD1A44508D18D4211D0002A0C
:1035600004D163465A1E934100E00123180030BD88
:103570000123FF28FAD162462243F7D12B004B40AA
:10358000F4E70023F2E7C04643025B0A42009C4690
:10359000C30F480210B5440A4800120E000EC90FAE
:1035A000FF2A1AD0FF280BD0002A24D16246002817
:1035B0001ED1002C2ED0002A32D1480001380BE059
:1035C000002C2AD1002A02D16246002AF5D08B4273
:1035D0001DD001205B42184310BD6246002A1CD159
:1035E000FF28F6D1002C18D120008B42F1D1F3E74F
:1035F000002AE2D0EBE70028EBD08B42E9D18242EF
:10360000E7DC04DBA445E4D80020A445E4D258005C
:103610000138E1E7002ADFD0DBE702204042DBE7A8
:103620008B42D6D1EEE7C04643025B0A42009C467D
:10363000C30F480210B5440A4800120E000EC90F0D
:10364000FF2A15D0FF280BD0002A1AD16246002885
:103650001DD1002C22D0002A32D1480001380FE0C1
:10366000002C0CD1002A14D16246002AF5D010E0BB
:103670006246002A03D1FF2805D1002C1CD002206D
:1036800010BD00280DD101205B421843F8E7002A45
:10369000E3D08B42F7D158000138F1E7002AEFD090
:1036A000F1E78B42EFD18242EDDCF4DBA445EAD8AE
:1036B0000020A445E4D2EEE720008B42E3D1DFE70F
:1036C0008B42E0D1F2E7C046F0B54646D6464F46BB
:1036D0004402C0B5C30F460098460D1C640A360E5E
:1036E00000D1CBE0FF2E6ED08023E400DB041C432E
:1036F000002399469A467F3E6F026B007F0A1B0E9D
:10370000ED0F002B6DD0FF2B00D1A6E07F3BF6180C
:103710004B460A2B00DD82E08023FF00DB041F43C1
:1037200043466B4098464B460022022B0FDD49462C
:1037300001238B40A621C9000B4200D06FE09021ED
:1037400089000B4200D0D3E08821194264D1200CBB
:103750002404240C21003B0C3F043F0C79435C43C0
:1037600047435843E4190B0C1B199F4202D980228E
:103770005202801809041A04090C52189401611E9F
:103780008C411B0C920E1B1814439B011C431B0104
:1037900000D5CDE030007F30002800DCAEE06307CC
:1037A0000BD00F2332002340042B06D00434230116
:1037B00003D580321000684B1C40FE2866DCA30154
:1037C0005B0AC0B21EE0002C00D08BE008239946B3
:1037D000063B6F029A466B007F0A1B0EED0F002B13
:1037E00091D1002F61D14A4601231A4391460A2AFA
:1037F00015DC43466B4098464B460122022B96DC73
:1038000000200023C00518434346DD072843E0BCE1
:10381000BA46B146A846F0BDA8463C00924653467B
:10382000022B33D0032B11D0012BE9D03000803094
:10383000721C002863DD6307B9D00F232340042BDB
:10384000B4D1B4E70F2A78D0A8463C008023DB032C
:1038500023435B02FF205B0AD4E7FF36002F2FD102
:1038600002234A4613430A2BD9DC42466A4090465B
:103870004A46002A0AD09946022258E7002C08D16D
:1038800004239946033B00269A4635E7FF20002390
:10389000B8E7200002F0A4FB7626431F9C400023DB
:1038A000764299469A46361A26E7380002F098FB87
:1038B0004B46361A763E0A2BB1DC053887402FE797
:1038C00003234A461A4313000A2ABBDC42466A40D5
:1038D000904601229A40882113000322194200D108
:1038E00035E799E70C239946093BFF269A4603E7FB
:1038F000002398468023FF20DB0383E73200030088
:103900001A3300DA7CE79E320123210094401B1A0F
:10391000D940621E94410C43630704D00F23234017
:10392000042B00D00434630111D50120002369E782
:10393000012362081C40144378E78023DB031C4208
:1039400084D01F4282D1A846FF203B435AE7A301FF
:1039500000205B0A56E7C046FFFFFFF7F0B5C646FA
:1039600047027B0A4A0245009C46C40F530A48009E
:10397000984600B52D0EBF09000ECE0F9209FF2804
:1039800000D171E001235E402B1AB4423CD0002BE1
:1039900000DC9CE1002800D1A3E0FF2D00D18BE0EA
:1039A0008021C9040A431B2B00DCFBE0013F7B01A3
:1039B00000D47BE001277F42BF01B9090E00080057
:1039C00002F00EFB330005388340854200DCD2E074
:1039D000B44F2D1A1F405A0700D1F6E00F221340B2
:1039E000042B00D1F1E004377B0100D4EDE0681C2A
:1039F000FE2D00D090E0FF200022C0051043E40718
:103A0000204380BCB846F0BD002B00DC77E10028E5
:103A10006FD1002A4CD0591E012B00D146E1FF2B5B
:103A20004AD01B296ADC0B0011002020D940C31AA0
:103A30009A40531E9A410A43BF188023DB041F4259
:103A400000D1BBE00135FF2DD5D0974A7908114050
:103A5000012217400F437A0700D09AE01F42C6D1D7
:103A6000FB089C462B004DE02B00FF3B002A2ED18B
:103A700001214E40B44200D1B4E0002B50D0002DC3
:103A800000D0EAE0FF23002F00D1FAE0591E012BFD
:103A900000D15CE1FF2B00D13DE11B2900DC22E1DC
:103AA000571E340005007B0100D583E72B00043747
:103AB000FA089446FF2B25D16346002B9BD0802229
:103AC0006346D2031A435202FF20520A95E7B442DA
:103AD00000D1A4E0002B23D0002DD3D0C446340065
:103AE000EDE7002AE4D0012B39D0FF2BE4D0013BD5
:103AF00059E7FF2DE0D01B2B00DCA6E00537FB08C3
:103B00009C462B0062465202520AD8B275E7012049
:103B10003A007B0100D43FE1C0B2BA01520A6CE71F
:103B2000FE216B1C194252D1002D00D0ACE0002FB9
:103B300000D11AE1002A00D1F4E08021BB1AC904A7
:103B40000B4200D13CE10124D71B3440002F46D06A
:103B500001200F42E1D1FB089C460023D2E7BF1AA7
:103B60007A0100D4DAE0BD01A80902F039FAAB0904
:103B70000538834001252022401B0130121A1F0006
:103B80009340C7405A1E93411F4328D000257B070E
:103B9000BDD00F233B40042B00D024E77B0100D590
:103BA00025E75DE711002020D940C31A9A40531E33
:103BB0009A410A43BF1A7B0100D5FDE67B0704D07A
:103BC0000F233B40042B00D00DE72B0070E7BB1AFE
:103BD00019005B0162D4002900D0EFE60024002028
:103BE00000220AE7002B1CD0002D00D003E7FF23A2
:103BF000002F47D0591E012B58D0FF2B00D18BE04E
:103C00001B2900DD90E00B0039002025D940EB1A7C
:103C10009F407B1E9F410F430500BF180DE7002BFF
:103C200017D1FE216B1C19421BD1002D00D080E062
:103C3000002F00D1AEE0002A74D0BA18530100D48E
:103C4000AAE092010120520AD7E68021C9040A4362
:103C5000EAE6002DCBD0C44631E73400FF20002235
:103C6000CBE6FF2B00D1C6E6BA185208510705D0A3
:103C70000F21171D1140042900D019E7D2089446DE
:103C800040E73400170013E7002F75D1002A00D059
:103C90009DE080220024FF20D203AEE60124D11B48
:103CA00034408BE6FFFFFFFBFFFFFF7DBB185A018F
:103CB00000D494E04D4A5B081A40590700D192E0C5
:103CC0000F210B40042B6ED00223171DF0E6002BB2
:103CD00000D125E7411B0B00002D00D1D3E6802346
:103CE000DB041F43D9E63B002024CB40611A8F4000
:103CF000791E8F411F4334000500D71B5BE7002B63
:103D00008FD0431B002D00D172E71B2B0CDC8021D0
:103D1000C9040F4378E73400C446CDE6FB089C464F
:103D20000123EFE60023EDE60532D3089C460300AD
:103D3000E8E6002FF0D0002A37D08023DB039C4533
:103D400000D2BCE6984500D3B9E6C446B7E6D31B1B
:103D50005A0130D59B019C09200002F041F9230053
:103D6000053883403400012505E7002A18D00124D6
:103D70000023C4463440C5E6002A16D08023DB0366
:103D80009C4500D29BE6984500D398E60124C446A2
:103D9000344094E6002A04D0D3089C460023B1E6C0
:103DA0000024002029E6023B68E780226346D20314
:103DB000FF201A4321E6DB089C4634000123A1E6DC
:103DC000002B00D10AE7DB089C4600239AE68022FC
:103DD00043460124D203FF201A4334400DE6DB089A
:103DE0009C4601238EE6022348E7C046FFFFFF7D85
:103DF00041024200C30F490A0020120E7E2A03DD51
:103E00009D2A02DD094A981870478020000401436A
:103E1000952A07DC9620821AD1404842002BF3D124
:103E20000800F1E7963A9140F7E7C046FFFFFF7FB1
:103E300070B5002813D0C317C5185D40C40F280003
:103E400002F0CEF89E2301001B1A07280EDD082879
:103E500030D008398D406D026D0AD8B201E00024DF
:103E60000025C0052843E407204370BD042816DD63
:103E7000052801D0421F9540104A2A4068070AD001
:103E80000F202840042806D00432500103D50B4BE4
:103E90001A409F235B1A9201550AD8B2E1E702004B
:103EA00028001B329040421E90410522521AD540F4
:103EB0000543E1E76D0296206D0AD2E7FFFFFFFBA5
:103EC00010B504000020002C0ED0200002F088F86D
:103ED00003009E20C01A072B09DD082B2CD0083BBD
:103EE0009C406402640AC0B2C005204310BD042B8C
:103EF00016DD052B01D05A1F9440114A224061075C
:103F00000AD00F212140042906D00432510103D5E3
:103F10009F200B49C01A0A409201540AC0B2E3E73D
:103F20001A0021001B3291400A00511E8A410521CE
:103F3000C91ACC401443E0E764029620640AD3E730
:103F4000FFFFFFFBF0B54746CE4680B583B000903B
:103F500001910E034D0001995F00CC0F710A009E84
:103F60006D0D760F0E43009900920193C80019035E
:103F7000019B7F0DDB0F9C464B0A0099490F1943AB
:103F8000009BDB009846EB1B644565D0002B14DDDD
:103F9000002F00D0AEE00F004246174300D14DE1A4
:103FA0005A1E012B00D1C9E2AF4FBB4200D121E222
:103FB000382A00DD58E2130061E1002B00D1A9E0AE
:103FC0007B1B002D00D0D7E13400044300D18AE2EE
:103FD0005C1E012B00D125E3A34DAB4200D1CFE203
:103FE000382C00DC7FE34246013A914690459241ED
:103FF0008E1864461D00320261D501235B4299464A
:104000009A4E300001F0ECFF0300083B48462021A7
:104010000700CA1AD7409E4098403A008146324372
:104020000600AB4200DADDE1581B33000130091A0B
:104030008B40C6405D1EAB4117008F4033431F438A
:10404000C2403B001600134300D117E27B0700D0AB
:104050005FE1A446380082E0002B00DCCCE0002FBA
:1040600000D08AE00F004246174300D1E6E05F1E11
:10407000012B00D146E27C4A934200D1BAE1382FAD
:1040800000DCE0E2421C9146802212041D00164230
:1040900015D01600744B01359D421DD0744A012184
:1040A00016404A4653081140F7070B431F43760852
:1040B0005B0709D00F23B9463B40042B04D04B4685
:1040C0001F1D4F459B41F61A330200D487E0664A14
:1040D0000135954200D085E02B00002600271B0506
:1040E0003343E40723433800190003B0C0BCB9468A
:1040F000B046F0BD5C4FBD4200D12EE2382B00DC53
:10410000BAE0431E9842804136189946330200D5E2
:1041100073E7D4E7574F6B1C3B4200D04EE13300AE
:104120000F00424603431743002D00D0E0E1002B6F
:1041300000D119E2002F00D11CE2821A9042AD4159
:10414000731A5B191D0200D4E3E24346181A804536
:10415000924107008E1BB618374300D1F1E2644646
:10416000070001233100804632023DD443464F0709
:10417000DA0817430023CD08F9E03B4FBD4200D1D8
:1041800038E1382B00DD53E180273F0439431F2BF2
:1041900000DD02E22027FA1A0F00944697404246BB
:1041A000DA401743B9466246474697403A00D9403D
:1041B000571EBA414F4676183A431318834280413E
:1041C0009946361A330200D564E74A46530700D1B0
:1041D000BBE20F231340042B00D070E74F462B00A7
:1041E000F8082CE06B055B0D214AFF0816407207AA
:1041F00076021743360B72E7002B00D194E07B1B4D
:10420000002D00D01DE13500054300D14EE25D1EBA
:10421000012B00D13BE2144A934200D1D0E1382D6A
:1042200000DC8CE2424601329146802212041D00DD
:104230001600114200D02DE70E0040E7C0087207BB
:104240001043094AF508934200D08BE107002F4341
:1042500007D0802636032E4336030700024B360B69
:104260003DE70026004B3AE7FF070000FFFF7F0015
:10427000FFFF7FFFFE07000080273F0439431F2B0D
:1042800000DDBCE02027FA1A0F00974094463A0060
:104290004746DF403A4391464746624697403A00D8
:1042A000D940571EBA414F46761A3A43831A98426C
:1042B000804199463618330287D57602760A002E59
:1042C00000D09EE6484601F08BFE030018331F2BFA
:1042D00000DC9BE64A46083882409D4200DDA1E0B2
:1042E0005B1B581C1F2800DC0FE217001F3BDF4040
:1042F000202805D040231B1A9A40531E9A41174389
:10430000002F6CD007231900B84639403B4200D13A
:104310002CE70F233B40042B00D03BE10025033B5F
:10432000320200D560E75AE7C84F6B1C3B4200D011
:10433000B3E033000343002D00D055E10F004246A7
:104340001743002B00D1C9E1002F00D112E18218E0
:10435000824280417618361A330200D5E0E1170018
:1043600037433CD00023D20877071743F5082E03C4
:104370005B05360B5B0DB2E6B54CA74200D1FFE002
:10438000382B7EDC8024240426431F2B00DD1DE116
:1043900020253400ED1A0200A840AC40DA40451E4A
:1043A000A841DE4014432043891B43461B1A98450D
:1043B0009241994664463D008E187CE74346C71AF1
:1043C000B946B842BF41731A7F42DB1B1F0200D5BA
:1043D00080E04F461E001F4300D070E700240023FA
:1043E00000267CE69B4EED1A16400200430700D0E3
:1043F000EFE6F3E67207C0081043F50826E71F0052
:104400000A00203FFA409446202B05D04027FB1A93
:10441000994043460B4398464246531E9A41634691
:104420001A4343E7EB1A8B4D15406F07ED089EE7E3
:10443000431C994680231B041E4200D13FE61E0008
:1044400028E6834DAF4200D1BAE0382B00DC03E10F
:1044500043460133994680231B043D001E00194248
:1044600000D017E60E002AE6421E90428041361820
:1044700091461D00320200D5BFE520E60027002648
:104480002DE64346013B984592418E189946644675
:104490003D00330200D5B0E511E66D4DAB4200D1D1
:1044A0001BE642468218824280417118091AC807E9
:1044B0005208104381464E08520700D148E10F22AE
:1044C0001D000240042A00D0F9E5C208770717430F
:1044D0000D094CE743461B1A984592418E1B99469D
:1044E0006446B618EBE6424664460E00D008A6E6DF
:1044F000002B00D0DEE0002F42D180260024544B58
:104500003603ECE583188342804175182D1A2A0280
:1045100000D4C5E04F4A5B081540EA071A43690812
:104520005B0700D119E10F231340042B00D100E1F8
:10453000171D9742B64102258E1B50E64346C21A0C
:1045400090428041761A36189146330220D4D3081F
:1045500077071F43F508012309E7C00873071843CD
:10456000F50873E6070002E7002F00D136E764463E
:104570000E004046C008770700230743F508F6E61B
:1045800043464807DA0864461043CD085EE66446B1
:10459000012592E6B946002591E51F000A00203F5B
:1045A000FA409446202B05D04027FB1A99404346F9
:1045B0000B4398464246531E9A4163461A43FCE514
:1045C00043464807DA081043CD083FE61C00350093
:1045D000203CE540202B03D04024E31A9E4030438A
:1045E000431E98412843E0E6002BE9D07307C0083A
:1045F000424618430B00F508134300D126E68023FA
:104600001B031D4206D0CE081E4203D13500D00840
:1046100049070843430FC000ED00C0085B0718437B
:10462000ED0813E643461B1A984592418E1BB618B7
:10463000994619003302AAD4CB0877071F43644672
:104640000123F50893E63B00A1E5C046FE07000004
:10465000FF070000FFFF7FFF80252D042E431F2B47
:1046600043DC2025EA1A3500944695400200DA40E2
:10467000154362469040DE40421E9041891928430E
:1046800040444045924181463D008E1A9AE5030020
:104690004344434592417518AD1A2A0200D539E7C3
:1046A0006F07DB081F43ED08012360E642460E005A
:1046B000D008C4E5C00873071843F508002F00D1DF
:1046C000C4E580231B031D42A4D0CE081E42A1D105
:1046D000D00849076446350008439BE7002F00D007
:1046E00044E50026FBE423004FE61D003200203D98
:1046F000EA409446202B03D04025EB1A9E403043DD
:10470000431E984163461843BAE720210023091A43
:1047100092E4170010001E001F4300D02AE75DE658
:10472000114BD2081E407707760201231743360B40
:10473000D5E4D708490702230F432D0917E62B00BC
:104740008DE7644600230026C9E42B00D00876E5F7
:104750007707C20817430D0909E6D2084907114334
:104760000F0002232D0902E6FFFF7FFFF0B545464B
:10477000DE4657464E460400E0B50D0089B0009471
:1047800001951F00019B16001B03190B019A019B49
:10479000D20F5B0080460C0093465B0D00D1C1E058
:1047A0008E4A934234D0009C019DC900620F0A4397
:1047B000802109041143E2009046894A00249B1895
:1047C0009A460023039100933B03190B7A003000B3
:1047D0008946520DFD0F002A00D17FE07F4B9A429F
:1047E0006ED0C900730F0B43802109041943894619
:1047F0007B49F300521851468A1A924600215E46C0
:104800006E400F2C00D9FBE0764AA400125997465F
:104810000A0000990A43039200D0B7E09A460223A7
:10482000904608240093CFE72E00002100230022A9
:1048300088461B051343F60733434046190009B069
:10484000F0BCBB46B246A946A046F0BD039B5D4600
:10485000994643460099022900D1F5E1032900D188
:10486000A1E00129E0D054465F4AA4180494002C2A
:1048700000DCFAE15A0704D00F221A40042A00D0C3
:1048800076E22E00DA084946CB0107D5574B19408E
:10489000894680215346C9005B180493544B049900
:1048A000994208DC484643071343984642024B05A9
:1048B000120B5B0DBDE7002100228846474BB8E78D
:1048C00052460B004B49334352189246002B58D1A5
:1048D0000222144300220221914690E70B00334349
:1048E00049D0002900D19EE1080001F079FB0B239B
:1048F0005B429C46020084441100484608398840C7
:104900001D23814660461B1A3000D84003004846EC
:104910000343994633008B4037495244521892461C
:1049200000216CE70A0000990A4303921CD0002C76
:1049300000D168E1200001F053FB02000B381D2379
:104940001B1A009811002500D84008398D4003003B
:104950002B430393009B8B409846284B00249B1AC3
:104960009A46002300932FE7002398469A46013386
:104970000424009328E701221443002201219146D8
:104980003DE7032303211C43330038E79A46032302
:10499000039400930C2417E70023802298460026F6
:1049A0000E4B120345E78022494612030A431203C5
:1049B00098462E00094B120B3BE780220399120305
:1049C000114202D049461142F0D08022039B1203CB
:1049D0001A4312035E46014B120B2AE7FF07000041
:1049E00001FCFFFF14690000FF030000FFFFFFFE52
:1049F000FE07000001F8FFFFF30300000DFCFFFFBE
:104A00000399894500D2F5E000D1F0E05246013A21
:104A1000924600224446904603984A461F0E1202D0
:104A200017431B0203933B04110C1B0C00938B4692
:104A3000FEF7E4FC009A0B044243210C05001943E5
:104A40008A4207D9C919013D8F4203D88A4201D948
:104A5000851EC919881A5946FEF7D0FC009A24040D
:104A600042430904240C03000C43A24204D9E41974
:104A7000013BA74200D8F2E00399A01A2D040C0CC8
:104A800009041D43090C2A0C2B04A9460D001B0C1C
:104A90005D43079163435143069462435B182C0CBA
:104AA000E318994202D9802149025218190C2D04A9
:104AB0001B042D0C8A185D19904200D284E000D1AD
:104AC0007FE043465D1BAB429B415446801AC018B1
:104AD000AD4BE4180494874200D1FBE05946FEF741
:104AE0008DFC0200009B05905A430B04290C1943CE
:104AF0008A4209D9431EC91905938F4204D88A42B4
:104B000002D9831E0593C919881A5946FEF776FC07
:104B10000A04944603002A0465460099120C59437E
:104B20002A43914207D9D219013B974203D89142B7
:104B300001D9831ED219521A059907980904050054
:104B40000B43190C8C461904090C4D4388466146E9
:104B5000AB466546484306994D43AC4645466943D6
:104B60005D4609182D0C4919884202D9802040025F
:104B700084445D46080C2D0409042D0C60444D1935
:104B8000824211D30DD001221343804A92456DDB3E
:104B90001A1D9A429B41D2085B42CC469C44E14696
:104BA00071E6002D00D193E0591EBA188C46BA4226
:104BB00000D285E0824200D2C4E000D1D1E00B00F7
:104BC000E1E7A84500D37CE74B46013B049343460D
:104BD000039C1B199846A3429B41FB1AC0188742AD
:104BE00038D282427DD87AD0049B994669E7434502
:104BF00000D90BE74146039AD40750084A081443EA
:104C0000CA07904609E701F0EBF9020003001530EE
:104C100020321C2800DC92E60099083B99400023D2
:104C20000391984699E601F0DBF915239C468444EC
:104C30000200634620321C2B00DC5DE631000838A0
:104C400081400023894667E600212E000022884625
:104C50004F4BEEE58742C7D14445C5D8C1E7A242D4
:104C600000D809E7831EE41906E72E002200373238
:104C700000DADAE522001E323FDB4D4601225046C3
:104C80004449121B40181C00290083408140D44035
:104C9000581E8341D54021430B432A00590708D0B1
:104CA0000F211940042904D0191D99429B41EA1A89
:104CB0000B00110263D50021012300228846B8E5CC
:104CC0000B00824200D05EE7039A954200D05AE77B
:104CD0003500CBE5002C41DD002201235DE7454591
:104CE00082D94B46023B9946434603995B18984646
:104CF0008B429B41FB1AC018E3E648461F22010085
:104D00005242121BD1401F3404D05246224C121979
:104D1000904003435A1E934107200B430100002299
:104D20001940184209D00F21194004291ED0181D1E
:104D300098428941030049424907DB080B439846E2
:104D4000002376E50399023B49008C4603998C4584
:104D50008941791A521861460391B2E701235B42F7
:104D600084E70399A942EDD36346ADE70021E4E768
:104D70001A1D9A429B412E005B42D2080DE7510753
:104D80005202120BD9E7C046FF03000002FCFFFFEE
:104D9000FF0700001E0400003E040000F0B5454679
:104DA000DE4657464E460C03E0B51F00230B4C0071
:104DB0009846630D9C463C03CB0F1C4D16009B464A
:104DC00083B0220BFB0F7C00640D0193AC450FD028
:104DD000AC420BD079400125490017D0280003B020
:104DE000F0BCBB46B246A946A046F0BD0125F5E79A
:104DF00001256445F2D14346134333430343EDD1C8
:104E00005B46019A9D1A6B1E9D41E7E78642E5D1FC
:104E1000019A934507D08C45E0D142463243531E58
:104E20009A411500DAE70025D8E7C046FF070000E1
:104E3000F0B557464E464546DE46E0B50D0009033F
:104E4000090BDF0F8C46B946E90F2D4F040083464E
:104E500088466E00190358009246760D090B400DE6
:104E6000BE421CD0B8420DD0002E2AD16646344333
:104E7000002823D10A4334D0002C3ED14B465800A1
:104E8000013815E0114335D1002E02D1634623438A
:104E9000F4D0C84508D143465800013808E06746B9
:104EA000274327D1B0421FD0434601205B4218431D
:104EB000F0BCBB46B246A946A046F0BD002CDDD0F2
:104EC000E7E70028F0D0C845EED18642ECDCE2DB13
:104ED0008C45E9D8DFD1DA45E6D30020DA45E7D9B9
:104EE000D9E7002CE4D0DFE7114303D1C845DBD17B
:104EF0000800DDE702204042DAE7C845E8D0D3E702
:104F0000FF070000F0B557464E464546DE46E0B581
:104F10000D000903090BDF0F8C46B946E90F2D4F31
:104F20000400834688466E00190358009246760DA9
:104F3000090B400DBE421DD0B8420DD0002E27D126
:104F400066463443002831D10A4332D0002C3DD18B
:104F50004B465800013815E0114312D1002E02D102
:104F600063462343F4D0C8451CD0434601205B422E
:104F7000184307E06746274303D1B042F5D11143F8
:104F80001AD00220F0BCBB46B246A946A046F0BDEE
:104F90000028EAD0C845E8D18642E6DC02DB8C4531
:104FA000E3D80DD0434658000138EBE7002CCFD0B2
:104FB000D9E7002CE6D0D8E70800C845E2D0D4E70E
:104FC000DA45D2D30020DA45DCD9EBE7C845E6D094
:104FD000CBE7C046FF070000F0B557464E464546B2
:104FE000DE46E0B50D0004001F000B03190B160090
:104FF00087B06B00EA0F89469246009401955B0DDD
:1050000000D1B7E1D54A934200D11DE1C900420F5A
:105010000A43802109041143C2009046D04A8946C0
:105020009B189B460023002502933C037A00FB0F4C
:105030003000240B520D009300D170E1C74B9A420F
:1050400000D155E1DC46C64BD2189444E3460A2D04
:1050500000DD0AE1730FE4001C4380231B0423439B
:10506000F0005246009900264A409246022D11DD7A
:105070000122AA40A6211400C9000C400A4200D017
:10508000F3E0902189000A4200D0C4E18821114256
:1050900000D0E5E041460C0C0904020C090C0F009D
:1050A00015000004000C654347430395B8462F00E4
:1050B0000D0006005543AC46454666432D0CB444EE
:1050C0006544AE4204D93E0080277F02F61903965C
:1050D00047463F043F0C2E0C2D04ED1904951D0C82
:1050E0001B041B0C00934B431F00009B694363434D
:1050F0009C463B0C6144C9186C438C4502D9802303
:105100005B02E4183F040B0C3F0C0904C919E418B6
:10511000731805934B461E04360C1F0C3300434393
:105120009C463B00534302936346784372431B0CF7
:105130001218D218904204D9802302985B02C0183A
:105140000290029B100C1B18029363461804330054
:10515000000C1204121800986E4343439C4603004F
:1051600060467B436F43F618050CAD19AB4202D97C
:1051700080235B02FF18039B059E2804F6186346F4
:105180008E4289411B041B0CC3181B194942581835
:105190008446B618A3429B418C4589419642924170
:1051A00002984942604400905B4252420B43009C8B
:1051B00002998018904292418C4289412D0C4942BB
:1051C00052420A435B199B18DB19C20D5B0204991A
:1051D0001A43914672020A43511E8A41F60D164344
:1051E00031004202114308008846DB0156D45A467A
:1051F0005C4BD218002A00DC13E14B0716D00F21BC
:105200005B460140042911D04146081D40458941B3
:10521000CC4649428C44E14680464846C10105D50A
:10522000514A104080228146D2009A184F4B9A4230
:1052300000DD25E1494643464C07DB081C43520587
:105240004B021B0B520D1BE00A0000990A439046CB
:1052500000D0DAE09B460223914608250293E4E65B
:10526000009A9946924680460296029B022B00D1F4
:1052700006E1032B33D0012B1AD100220023002496
:1052800012051A435346DB071A432000110007B0EA
:10529000F0BCBB46B246A946A046F0BD01224B0871
:1052A0000A4049461343CA07134398464B08994698
:1052B00080215A46C900531C5218002A00DCB1E074
:1052C00040464107A9D00F21014004299CD1A4E701
:1052D0000F2D00D1F7E0009BA1469A46804680231F
:1052E0004A461B0313431B0344461C4A1B0BC7E7D8
:1052F00059463300194E234389198B46002B72D12E
:10530000022129430A29B0DC5046009C60408246B5
:10531000002D00D107E10D0000200226A8E62300A1
:10532000334351D0002C00D1BEE0200000F058FEE5
:1053300002000B381D231B1A3000D8401100030057
:10534000300008398C408840234359468A1A08495E
:10535000521893460A2D00DC83E686E7FF0700001B
:1053600001FCFFFFFF030000FFFFFFFEFE07000040
:105370000DFCFFFF0A000B0000990A4390461CD069
:10538000002B00D180E0180000F02AFE02000B384C
:105390001D231B1A009811004D46D84008398D4036
:1053A00003002B439946009B8B409846624B002597
:1053B0009B1A9B460023029337E6002399469B469F
:1053C00001330425029330E6012215430A2D00DD46
:1053D0004BE7524600994A409246022D00DC4CE7CA
:1053E0000020012644E603231D430A2D00DD6FE75C
:1053F0005346009A882153400122AA409A46032628
:105400002300114200D145E62AE79B46032380464C
:105410000C25029309E600239A468023474A1B0382
:105420002EE75B461100373100DA26E711001E3106
:1054300058DA48461F2104004942891ACC4021000D
:105440001F3205D03E4A9B18984042460243904680
:105450004246531E9A410A4307210C000023144080
:10546000114209D00831114004295FD0111D914229
:10547000A4410A0064426407D20814430022FFE6F4
:10548000002300242D4AFBE600F0AAFD02000300E1
:10549000153020321C2800DC7AE70021884600996C
:1054A000083B9940894681E700F09AFD020003001D
:1054B000153020321C2800DC3CE73100083B9940C5
:1054C00000200B0041E780234A461B031A4200D10B
:1054D00005E71C4200D002E7009A234392460400ED
:1054E000164ACDE60121891A164A48469B184246BB
:1054F0009840CA40104342469A40531E9A414B4638
:105500000243CB40510708D00F211140042904D099
:10551000111D914292419B1A0A00190208D50122DD
:1055200000230024ACE600230024A9E60024A3E71E
:105530005C075B021B0B9FE70DFCFFFFFF070000F2
:105540003E0400001E040000F0B557464E46454696
:10555000DE46E0B50C0383B0009201934D00CB0F03
:10556000610A440F9846009A019B0C431903019B62
:10557000C0005F007B0D9C46019B8346DE0F4B0AFB
:1055800000996D0D490F1943009BDA00BF4B9246FD
:1055900099469C456BD0012347465E406346EB1A13
:1055A000B74216D0002B00DC91E26646002E00D0F8
:1055B0007AE00E00164300D132E15E1E012B00D1CD
:1055C00099E24B4500D1E5E1382E00DD23E23300BE
:1055D00036E1002B00DCE1E26646002E00D0F0E070
:1055E0000E00164300D11BE15E1E012B00D152E2DA
:1055F0004B4500D1CEE1382E00DC20E3802212049E
:105600001D00471C144214D01400A04B01359D42CC
:105610001CD001219E4A7B0814403940E0070B430F
:10562000184364085B0709D00F2307000340042BCD
:1056300004D0381DB842BF417F42E419230200D490
:1056400021E1924A0135954200D0DFE02B00002491
:10565000002742461B052343D60733433800190071
:1056600003B0F0BCBB46B246A946A046F0BD894B8C
:10567000EF180B0013434DD0B0454FD0002F6DD025
:10568000002D00D18BE1B0464807D2081043CD0869
:1056900007002F4300D1CDE0802424032C432403B2
:1056A00007007A4B240BD4E74D4500D131E2382B6B
:1056B00000DCC2E0471EB842804124182302B8D55E
:1056C0000127754C7F42200000F08AFC0300083B54
:1056D00020213800CA1AD0409C4002009F4022433B
:1056E000AB4200DA4FE1581B0130091A3C008F40F1
:1056F000C4407B1E9F4113008B4027431F43C24081
:105700003B001400134300D18EE17B0700D0F6E08C
:1057100038004AE001235E40B045AFD1002F00D1F0
:10572000F9E0002D00D071E163462500054300D16A
:10573000A6E25D1E012B00D1BBE2544FBB4200D15B
:1057400064E1382D00DCFCE2571C802212041D00AD
:105750001400114200D058E70C006AE74F4F6B1C51
:105760003B4200D0FFE00F00230017430343002D0E
:1057700000D080E1002B00D1D7E1002F00D1DBE188
:10578000831A9C466045AD41631A5B191D0200D423
:10579000B9E2101A82429241012307000C1BA4189F
:1057A00033409846274300D1B8E1012321008246C7
:1057B00022022DD453464F07DB081F43CD08002398
:1057C000CCE04D4500D1E5E0382B00DD16E1802727
:1057D0003F0439431F2B00DDB7E120260F00F61AE6
:1057E000B740B2463E001700DF403E433700564602
:1057F000B240D940561EB24164183A431718874246
:105800008041241A230200D5FFE633E06B055B0DCF
:105810001F4AC0081440670764020743240B18E7B7
:10582000C00862071043194AE508934200D12FE7E8
:10583000070093E00024154B0BE780273F04394312
:105840001F2B00DDC4E020260F00F61AB740B24639
:105850003E001700DF403E4337005646B240D94075
:10586000561EB241641A3A43871AB842804124183E
:10587000230217D47B0700D165E20F233B40042BA2
:1058800000D0D6E638002B00C008CAE7FF070000AA
:10589000FFFF7FFF01F8FFFFFFFF7F00FE07000013
:1058A000B04601256402640A002C00D00BE73800E2
:1058B00000F096FB030018331F2B00DC08E73A00CA
:1058C000083882409D4200DD92E05B1B581C1F2877
:1058D00000DC14E217001F3BDF40202805D04023E6
:1058E0001B1A9A40531E9A411743002F00D115E10D
:1058F00007231900BA4639403B4200D15AE70F232B
:105900003B40042B00D01EE138000025033B22025F
:1059100000D57DE7B7E7CB4F6B1C3B4200D086E05C
:1059200023000343002D00D05CE10F001743002B40
:1059300000D1CCE1002F00D1FEE0821882428041EC
:105940006418241A230200D5EAE11700274300D186
:10595000E4E00023D20867071743E5082C035B0542
:10596000240B5B0D75E6831A9C466045BF41631AA4
:105970007F42DB1B1F0275D467461F4300D1D0E076
:105980001C00674690E7B04CED1A14407B0700D02E
:1059900073E777E76307C0081843E50878E66346CE
:1059A0002500054373D05D1E012B00D138E1A74FC0
:1059B000BB4200D167E6382D00DC8DE1571EBA42AC
:1059C00092418C18B0461D00220200D578E630E6E0
:1059D0001F000E00203FFE40202B04D04027FB1A62
:1059E00099400A4392465246531E9A4132433BE73E
:1059F000EB1A954D15406F07ED08AFE780231B04A8
:105A0000471C1C4200D114E61C00FEE54807D208E2
:105A10001043CD083CE6471EB842804124181D00C3
:105A2000220200D54CE604E60027002411E6874D4B
:105A3000AB4200D10BE68218824280416118081AFD
:105A4000C707520817434408520700D47EE10F22CB
:105A50001D003A40042A00D0EBE5FF086407274305
:105A600005097BE70123171ABA4292410C1B334008
:105A70009846A41818E7002B00D004E1002F00D0AE
:105A800057E10023802498462403704BE1E5B0469B
:105A90000C00D008C5E687188742804165182D1A8A
:105AA0002B0200D40DE1684B7A081D40EB0713432D
:105AB0006F08520700D42DE10F221A40042A00D1AA
:105AC00028E1181D9842A44102253C1BDBE6002B6F
:105AD00000D143E663465B1B002D00D160E7382B05
